:100000000C945D000C9485000C9485000C94850084
:100010000C9485000C9485000C9485000C9485004C
:100020000C9485000C9485000C9485000C94F705C5
:100030000C9485000C9485000C9485000C9485002C
:100040000C9455050C9485000C94C5050C949F05E3
:100050000C9485000C9485000C9485000C9485000C
:100060000C9485000C94850000000008000201003B
:100070000003040700000000000000000000000072
:10008000250028002B0000000000240027002A0083
:10009000040404040404040402020202020203032E
:1000A0000303030301020408102040800102040836
:1000B00010200102040810206E0811241FBECFEF8B
:1000C000D8E0DEBFCDBF11E0A0E0B1E0EAE9FFE19A
:1000D00002C005900D92AA3FB107D9F722E0AAEF1E
:1000E000B1E001C01D92A83DB207E1F710E0CDE5F7
:1000F000D0E004C02197FE010E94A00ECC35D107AC
:10010000C9F70E943B090C94CB0F0C94000090E0BF
:10011000FC01EC55FF4F249180579F4FFC018491C7
:10012000882399F090E0880F991FFC01EA57FF4F50
:10013000A591B491FC01E458FF4F859194918FB73C
:10014000F894EC91E22BEC938FBF089590E0FC01C2
:10015000E859FF4F2491FC01EC55FF4F3491FC010D
:10016000E057FF4FE491EE23C9F0222339F023300A
:1001700001F1A8F4213019F1223029F1F0E0EE0F5D
:10018000FF1FE458FF4FA591B4918FB7F894EC91FD
:10019000611126C030953E233C938FBF08952730D0
:1001A000A9F02830C9F0243049F7809180008F7D74
:1001B00003C0809180008F7780938000DFCF84B56B
:1001C0008F7784BDDBCF84B58F7DFBCF8091B0006E
:1001D0008F778093B000D2CF8091B0008F7DF9CF20
:1001E0003E2BDACF8E3008F08E508770806480937B
:1001F0007C0080917A00806480937A0080917A00FC
:1002000086FDFCCF809178009091790008953FB7EA
:10021000F89480910A0290910B02A0910C02B09187
:100220000D0226B5A89B05C02F3F19F00196A11D10
:10023000B11D3FBFBA2FA92F982F8827BC01CD0130
:10024000620F711D811D911D42E0660F771F881F8F
:10025000991F4A95D1F708958F929F92AF92BF92BE
:10026000CF92DF92EF92FF924B015C010E94070157
:100270006B017C010E9407016C197D098E099F09A1
:10028000683E734081059105A8F321E0821A910828
:10029000A108B10888EEC80E83E0D81EE11CF11C4D
:1002A00081149104A104B10429F7FF90EF90DF902D
:1002B000CF90BF90AF909F908F900895DC01ED910B
:1002C000FC910190F081E02D0994AF92BF92CF9202
:1002D000DF92EF92FF920F931F93CF93DF936C0106
:1002E0007B018B01040F151FEB015E01AE18BF08E7
:1002F000C017D10759F06991D601ED91FC91019099
:10030000F081E02DC6010995892B79F7C501DF91B0
:10031000CF911F910F91FF90EF90DF90CF90BF9002
:10032000AF900895FC01538D448D252F30E0842F2C
:1003300090E0821B930B541710F0CF96089501970D
:100340000895FC01918D828D981761F0A28DAE0FFA
:10035000BF2FB11D5D968C91928D9F5F9F73928F81
:1003600090E008958FEF9FEF0895FC01918D828DAD
:10037000981731F0828DE80FF11D858D90E008957A
:100380008FEF9FEF0895FC01918D228D892F90E0D2
:10039000805C9F4F821B91098F73992708958EE08F
:1003A00092E00E94C30121E0892B09F420E0822F12
:1003B000089580E090E0892B29F00E94CF018111FF
:1003C0000C9400000895FC01A48DA80FB92FB11D55
:1003D000A35ABF4F2C91848D90E001968F7399277B
:1003E000848FA689B7892C93A089B1898C91837059
:1003F00080648C93938D848D981306C00288F38952
:10040000E02D80818F7D80830895EF92FF920F937E
:100410001F93CF93DF93EC0181E0888F9B8D8C8DB0
:1004200098131AC0E889F989808185FF15C09FB7A4
:10043000F894EE89FF896083E889F9898081837067
:10044000806480839FBF81E090E0DF91CF911F9116
:100450000F91FF90EF900895F62E0B8D10E00F5F37
:100460001F4F0F731127E02E8C8D8E110CC00FB60D
:1004700007FCFACFE889F989808185FFF5CFCE01A5
:100480000E94E301F1CFEB8DEC0FFD2FF11DE35A3C
:10049000FF4FF0829FB7F8940B8FEA89FB89808128
:1004A0008062CFCFCF93DF93EC01888D8823B9F0A2
:1004B000AA89BB89E889F9898C9185FD03C080816F
:1004C00086FD0DC00FB607FCF7CF8C9185FFF2CFEC
:1004D000808185FFEDCFCE010E94E301E9CFDF915E
:1004E000CF910895089590E080E00895CF93DF9331
:1004F000EC0160E08E810E94A60061E08E810E9486
:10050000A60060E08E810E94A6008BE891E0019732
:10051000F1F7DF91CF910895CF92DF92EF92FF92A2
:100520000F931F93CF93DF936C017C0187E0E80E5C
:10053000F11CD0E0C0E0062F10E0B8010C2E02C084
:10054000759567950A94E2F76170F70181917F01D3
:100550000E94A6002196C430D10579F7C601DF912B
:10056000CF911F910F91FF90EF90DF90CF900C945F
:100570007602CF92DF92EF92FF920F931F93CF9369
:10058000DF93EC01F62E642F8C810E94A6008D81F2
:100590008F3F19F060E00E94A6000F2D10E08F85BC
:1005A00084FF25C06E0187E0C80ED11CF12CE12C20
:1005B000B8010E2C02C0759567950A94E2F7617038
:1005C000F60181916F010E94A600FFEFEF1AFF0A6A
:1005D00088E0E816F10461F7CE01DF91CF911F9119
:1005E0000F91FF90EF90DF90CF900C947602B801BE
:1005F00084E0759567958A95E1F7CE010E948C029B
:100600006F2DCE01DF91CF911F910F91FF90EF9051
:10061000DF90CF900C948C0240E0682F8DEA92E03E
:100620000C94B902CF93DF93823029F49091BC02ED
:1006300098609093BC028093C0021092C10280E443
:100640008093C20280E18093C30280E58093C4025C
:100650008091B1020E9487008091B2028F3F11F019
:100660000E9487008091B3020E948700CDEAD2E009
:100670009E012D5A32408091BC0284FD0AC084E064
:1006800090E02196281739073CF48E810E9487005C
:10069000EFCF88E090E0F5CF8BE39DE00197F1F795
:1006A00060E08091B1020E94A60060E08091B302F8
:1006B0000E94A6008091B2028F3F19F060E00E9474
:1006C000A6008091BC0284FD39C063E08DEA92E00F
:1006D0000E948C02CBE4D6E4CE010197F1F763E0EF
:1006E0008DEA92E00E948C022197F1F763E08DEA97
:1006F00092E00E948C0283E592E00197F1F762E0BC
:100700008DEA92E00E948C028091BC0280620E947D
:100710000C0384E08093BD028CE00E940C0381E016
:100720000E940C038BE39FE10197F1F782E0809335
:10073000BE0286E0DF91CF910C940C0380620E9490
:100740000C038BE496E40197F1F78091BC02806280
:100750000E940C0383E592E00197F1F78091BC02BF
:1007600080620E940C03D0CF9091C002691710F0F4
:100770006FEF690FE62FF0E0E355FD4F9489890F85
:1007800080680C940C0341E00E94B90281E090E083
:100790000895FB0101900020E9F73197AF01461B56
:1007A000570BDC01ED91FC910280F381E02D09945F
:1007B0008F929F92AF92BF92EF92FF920F931F93EF
:1007C000CF93DF93CDB7DEB7A1970FB6F894DEBF16
:1007D0000FBECDBF7C01FA01CB0119A2223008F473
:1007E0002AE08E010F5D1F4F822E912CB12CA12C7F
:1007F000BF01A50194010E945F0EF901CA016A3090
:100800000CF5605DD8016E938D01232B242B252BD5
:1008100079F790E080E0109721F0BD01C7010E94B8
:10082000C903A1960FB6F894DEBF0FBECDBFDF910E
:10083000CF911F910F91FF90EF90BF90AF909F903D
:100840008F900895695CDECFCF92DF92EF92FF9296
:100850000F931F93CF93DF936B01770FEE08FF0881
:10086000F7FE1BC0EC016DE20E945E018C01442783
:100870005527BA014C195D096E097F092AE0CE019E
:100880000E94D803800F911FDF91CF911F910F918C
:10089000FF90EF90DF90CF9008952AE0B701A60176
:1008A000DF91CF911F910F91FF90EF90DF90CF904C
:1008B0000C94D803CF93DF93BC018EE092E00E94AA
:1008C000C903EC0164E371E08EE092E00E94C90389
:1008D0008C0F9D1FDF91CF9108952F923F924F92E1
:1008E0005F926F927F928F929F92AF92BF92CF92C0
:1008F000DF92EF92FF921F93CF93DF93EC016A0197
:100900007B01722EAB019601CB01B6010E94320E23
:1009100067E371E0811126C046015701E894B7F8FA
:100920002FEF3FEF4FE75FE7C501B4010E94320EA2
:1009300081110CC02FEF3FEF4FE75FE7C501B40116
:100940000E94680C6BE371E0181664F02FEF3FEF24
:100950004FE75FE4C701B6010E94C00D1816B4F45A
:100960006FE371E0CE01DF91CF911F91FF90EF9087
:10097000DF90CF90BF90AF909F908F907F906F90BF
:100980005F904F903F902F900C94C9032FEF3FEF53
:100990004FE75FECC701B6010E94680C87FDE0CF0E
:1009A00020E030E0A901C701B6010E94680C312C9B
:1009B000212C87FF09C06DE2CE010E945E011C015F
:1009C000F7FAF094F7F8F09410E060E070E080E05F
:1009D0009FE3711641F020E030E040E251E40E94D4
:1009E0006D0C1F5FF6CFA70196010E94FC0B2B0137
:1009F0003C010E94DF0C4B015C012AE0BC01A40118
:100A0000CE010E94D8037C01E20CF31C1123C1F13A
:100A1000C501B4010E940E0D9B01AC01C301B201DE
:100A20000E94FB0B4B015C016EE2CE010E945E0155
:100A3000E80EF91E115020F120E030E040E251E4D0
:100A4000C501B4010E94C50D2B013C010E94DF0CC1
:100A50004B01B12CA12C2AE0B501A401CE010E94CA
:100A6000D803E80EF91EC501B4010E940E0D9B01CA
:100A7000AC01C301B2010E94FB0B4B015C01DACF58
:100A8000C701DF91CF911F91FF90EF90DF90CF9042
:100A9000BF90AF909F908F907F906F905F904F909E
:100AA0003F902F9008950C94C9031F920F920FB698
:100AB0000F9211242F933F938F939F93AF93BF93E4
:100AC0008091060290910702A0910802B09109025C
:100AD0003091050223E0230F2D3758F50196A11D13
:100AE000B11D209305028093060290930702A09304
:100AF0000802B093090280910A0290910B02A09122
:100B00000C02B0910D020196A11DB11D80930A0245
:100B100090930B02A0930C02B0930D02BF91AF9182
:100B20009F918F913F912F910F900FBE0F901F902B
:100B3000189526E8230F0296A11DB11DD2CF1F9252
:100B40000F920FB60F9211242F933F934F935F9301
:100B50006F937F938F939F93AF93BF93EF93FF9385
:100B60008EE092E00E94E301FF91EF91BF91AF917F
:100B70009F918F917F916F915F914F913F912F91B5
:100B80000F900FBE0F901F9018951F920F920FB6E7
:100B90000F9211242F938F939F93EF93FF93E091E4
:100BA0001E02F0911F028081E0912402F091250243
:100BB00082FD1BC09081809127028F5F8F732091EF
:100BC0002802821741F0E0912702F0E0E25FFD4F3A
:100BD000958F80932702FF91EF919F918F912F9195
:100BE0000F900FBE0F901F9018958081F4CF1F9229
:100BF0000F920FB60F9211242F923F924F925F9255
:100C00006F927F928F929F92AF92BF92CF92DF921C
:100C1000EF92FF920F931F932F933F934F935F9306
:100C20006F937F938F939F93AF93BF93EF93FF93B4
:100C3000CF93DF9300D000D0CDB7DEB7F8942091EA
:100C4000AB023091AC023A83298310E000E0D12C52
:100C5000C12CA981BA8113968C9113978C151D0410
:100C6000B9F0B4F01496ED91FC91E00FF11FFC8304
:100C7000EB8380810E94F200AB81BC8119969C932A
:100C80008E931897BFEFCB1ADB0A025C1F4FE1CFA0
:100C9000312C212CF12CE12C50E6852E5AEE952E8C
:100CA000A12CB12CE981FA8183818E151F0409F0F2
:100CB0000CF4ECC124813581220D331D3C832B8340
:100CC000D901D0964D905D906D907C90D397F901AD
:100CD000808D918DA28DB38D480E591E6A1E7B1E8C
:100CE00040AA51AA62AA73AA84899589A689B7895C
:100CF0008201081B190B15AB04AB868597850C97F1
:100D0000978786878685978597FDC0C08685978556
:100D1000873F99400CF0BDC0D9011E968D919C91E2
:100D2000EB81FC819787868780859185C2ACD3ACA7
:100D30008C159D05CCF48285938565E070E00E945A
:100D40004B0ECB01880F991F680F791F6017710731
:100D50005CF42085318580AD91AD2817390724F4E6
:100D60008085918591AF80AFAB81BC8118968D91C4
:100D70009C911997C816D9069CF418962D913C9110
:100D80001997D6968D919C91D7978217930744F423
:100D900018968D919C911997D7969C938E93D69780
:100DA0000B3F11050CF4ABC0EB81FC818085918574
:100DB000C816D9060CF0A3C084858111A0C0828515
:100DC000938565E070E00E944B0ECB01880F991F60
:100DD000680F791F601771070CF091C021E024871C
:100DE00084899589A689B789F201E81BF90BAB8143
:100DF000BC811B96FC93EE931A97FD01448A558A99
:100E0000668A778A85AD882371F015AE7C96CD0110
:100E1000C096AB81BC811A962D913C912193319360
:100E20008E179F07B1F7EB81FC8184AD8823A1F178
:100E300014AE21E025AFAB81BC8112968D919C91BF
:100E4000139797FD08C01C962C9161E0211101C0F9
:100E500060E00E94A600EB81FC810481158117FDF2
:100E6000EAC0868597856AE070E00E944B0E7C831D
:100E70006B83802F0E9487002B813C81232B09F0FC
:100E8000AAC060E0802F0E94A600D5C090E080E05C
:100E900047CF86EF99E044CFEB81FC817C964B8174
:100EA0005C81425D5F4F30E020E0828193818193DD
:100EB0009193280F391F4E175F07B9F7AB81BC819B
:100EC0001A968D919C911B979F969C938E939E97BB
:100ED000820F931F6AE070E00E94370E9B0150E082
:100EE00040E0C501B4010E94810EEB81FC81378393
:100EF000268321E0258786EF99E097878687AB8157
:100F0000BC8118968D919C9119978C159D053CF587
:100F10001C968C911C97882311F11C961C921C978F
:100F2000D8964D915C91D997D6962D913C91D797B3
:100F3000241B350B53963C932E93529752968D91CA
:100F40009C9197FD019695958795840F951FEB8150
:100F5000FC8193AF82AF97AB86AB91AF80AF053C7E
:100F600019400CF468CFAB81BC8150968D919C9157
:100F70005197DB969C938E93DA97E0E0F2E0D79658
:100F8000FC93EE93D697D996FC93EE93D89754960C
:100F90004D925D926D927C925797E1E0DC96EC93D6
:100FA000DC97DD961C92DD971D961C921D97179677
:100FB0001C921E92169728E532E01B963C932E93C6
:100FC0001A971C961C921C9784E690E053969C936B
:100FD0008E93529730CF8B819C818F3F910511F476
:100FE00061E050CFF801FF27E859FF4FE491E3306B
:100FF00079F150F4E130D1F0E23021F1AB81BC81E4
:10100000A038B1056CF73DCFE73071F1E830A9F1B8
:10101000E430A1F7809180008062809380002B8172
:101020003C8130938B0020938A0005C084B5806892
:1010300084BD9B8197BDBFEFEB1AFB0AEEE32E0E3A
:10104000311C30CE84B5806284BDAB81A8BDF3CFA6
:1010500080918000806880938000EB81FC81F09318
:101060008900E0938800E7CF8091B000806880938A
:10107000B0003B813093B300DECF8091B00080623E
:101080008093B0008B818093B400D5CF78940F907B
:101090000F900F900F90DF91CF91FF91EF91BF9143
:1010A000AF919F918F917F916F915F914F913F9100
:1010B0002F911F910F91FF90EF90DF90CF90BF90F5
:1010C000AF909F908F907F906F905F904F903F90E8
:1010D0002F900F900FBE0F901F9018951092110235
:1010E0001092100288EE93E0A0E0B0E0809312022C
:1010F00090931302A0931402B09315028AE191E039
:1011000090930F0280930E0285EC90E090931B0267
:1011100080931A0284EC90E090931D0280931C024D
:1011200080EC90E090931F0280931E0281EC90E08F
:10113000909321028093200282EC90E0909323020E
:101140008093220286EC90E0909325028093240203
:1011500010922702109228021092290210922A025D
:1011600089E08093C5021092D1021092D00282E0F1
:1011700090E09093D3028093D20285EC92E090931A
:10118000AC028093AB0281E08093C8028EE390E0D2
:101190000E94A60EFC018EE090E0918380838FEF89
:1011A0009FEF938382839583848382E090E0A0E025
:1011B000B0E0808F918FA28FB38FDF015C96CF015B
:1011C000C0961D921D928A179B07D9F71586178224
:1011D00016828EEE92E093878287148610AA11AA57
:1011E00012AA13AA148A158A168A178A80E092E036
:1011F00097AB86AB91AF80AF8089918993AF82AF77
:1012000084E690E0938B828B81E084AF15AE1786E5
:101210001686F093CA02E093C9028093C602109228
:10122000B0021092AF028CE291E09093AE028093F4
:10123000AD0287E08093B1028FEF8093B20286E027
:101240008093B30285E08093B40284E08093B5027A
:1012500083E08093B60282E08093B7021092B802D6
:101260001092B9021092BA021092BB021092BC0204
:1012700081E00C941203789484B5826084BD84B5B7
:10128000816084BD85B5826085BD85B5816085BD81
:1012900080916E00816080936E0010928100809139
:1012A00081008260809381008091810081608093C1
:1012B0008100809180008160809380008091B100E6
:1012C00084608093B1008091B00081608093B00011
:1012D00080917A00846080937A0080917A008260A5
:1012E00080937A0080917A00816080937A00809167
:1012F0007A00806880937A001092C100E0911E020B
:10130000F0911F0282E08083E0911A02F0911B02AB
:101310001082E0911C02F0911D028FEC80831092EC
:101320002602E0912202F091230286E08083E09180
:101330002002F0912102808180618083E09120026F
:10134000F0912102808188608083E0912002F091F9
:101350002102808180688083E0912002F091210247
:1013600080818F7D808388E00E94870060E088E034
:101370000E94A60082E00E94120380E40E940C03F7
:10138000C8E0D1E069918DEA92E00E94C30321E0B8
:10139000C031D207B9F788E40E940C03C0E0D1E065
:1013A00008E011E069918DEA92E00E94C3030C17F6
:1013B0001D07C1F760E080E00E94B40367E671E0BA
:1013C0008DEA92E00E94530561E080E00E94B40340
:1013D00068E771E08DEA92E00E94530560ED77E0E6
:1013E00080E090E00E942C0181E00E940C038BE3DE
:1013F0009FE10197F1F760E080E00E94B40369E8A3
:1014000071E08DEA92E00E94530561E080E00E9465
:10141000B4036EE871E08DEA92E00E945305E0911A
:10142000C902F091CA02118210828DE090E093838C
:101430008283F89486E292E0918B808B93AF82AFA7
:101440007894F12CE12CD12CC12C8091C8028C1500
:101450001D0431F12CF1C091C902D091CA02CE0D08
:10146000DF1D8A819B8197FD06C00E94870060E096
:101470008A810E94A6008C819D8197FD0AC00E94EE
:101480008700CC818C2F0E94870060E08C2F0E9407
:10149000A6003FEFC31AD30A4EE3E40EF11CD5CFEA
:1014A0000E9407016053784F8F4F9F4F6093CB028C
:1014B0007093CC028093CD029093CE021092CF0213
:1014C0001092C7028091C602882389F01092800092
:1014D000109282008CE0809381008CE790E09093E2
:1014E00089008093880082E080936F00789484E97B
:1014F00091E00E945A04C0E0D0E0E091C902F0916E
:10150000CA02F8948585158678948823C1F1E09104
:10151000C902F091CA028681978190930402809358
:1015200003026CEA71E08EE092E00E945305C090E5
:101530000302D09004020D2C000CEE08FF082AE0F4
:10154000B701A601F7FE0DC06DE28EE092E00E94A9
:101550005E0144275527BA014C195D096E097F09C0
:101560002AE08EE092E00E94D80364E371E08EE00E
:1015700092E00E94C90382EB91E00E945A0481E04C
:101580000E94F2005C018FB7F894C0900602D090E0
:101590000702E0900802F09009028FBF80910302D9
:1015A00090910402853691050CF0A5C00197CB9768
:1015B00008F4A1C060E088E00E94A6001092020238
:1015C00010E08091FA019091FB01A091FC01B09193
:1015D000FD01A7019601281B390B4A0B5B0BDA01B1
:1015E000C901883E9340A105B10508F473C0B50157
:1015F000BB0C880B990B0E94100D20E030E44CE9E5
:1016000050E40E94C50D20E030E040E251E40E9429
:101610006D0C4B015C01C092FA01D092FB01E0928B
:10162000FC01F092FD0160E0112309F4AFC080E0FD
:101630000E94B40361E08DEA92E00E94C3036CEC67
:1016400071E08DEA92E00E94530561E08DEA92E03C
:101650000E94C30361E080E00E94B40369E871E086
:101660008DEA92E00E94530560910302709104029A
:101670008DEA92E00E94240480910302909104027A
:101680006BE471E08536910514F063E471E08DEA56
:1016900092E00E94530566EE71E08EE092E00E94B7
:1016A000530521E0B501A4018EE092E00E946D0493
:1016B0008DEE91E00E945A0460EF71E08EE092E0BE
:1016C0000E94530580E691E0112311F083E591E03B
:1016D0000E945A0464E170E080E090E00E942C01D6
:1016E000209709F40ACF0E94CF01882309F405CF7F
:1016F0000E94000002CF80910202811124C08091DB
:10170000FE019091FF01A0910002B0910102A7019A
:101710009601281B390B4A0B5B0BDA01C901803992
:101720009140A105B10578F061E088E00E94A60033
:1017300081E080930202C092FE01D092FF01E0920C
:101740000002F0920102109102021123E9F080914F
:10175000FE019091FF01A0910002B0910102A7014A
:101760009601281B390B4A0B5B0BDA01C90186393C
:101770009105A105B10508F424CF60E088E00E943E
:10178000A600109202021DCF11E01BCF84E00E9440
:10179000B40360910302709104021616170644F513
:1017A0008DEA92E00E94240460EE71E08DEA92E0FE
:1017B0000E94530560E08DEA92E00E94C3036FED42
:1017C00071E08DEA92E00E94530561E085E00E949D
:1017D000B40321E0B501A4018DEA92E00E946D04FA
:1017E0006FED8DEA92E00E945E0162EE71E04FCFF4
:1017F0006BED71E0E6CF5058BB27AA270E94130C6F
:101800000C94860D0E94780D38F00E947F0D20F018
:1018100039F49F3F19F426F40C94750D0EF4E095FD
:10182000E7FB0C946F0DE92F0E94970D58F3BA1740
:10183000620773078407950720F079F4A6F50C94E6
:10184000B90D0EF4E0950B2EBA2FA02D0B01B901A6
:1018500090010C01CA01A0011124FF27591B99F026
:10186000593F50F4503E68F11A16F040A22F232F32
:10187000342F4427585FF3CF469537952795A79582
:10188000F0405395C9F77EF41F16BA0B620B730B29
:10189000840BBAF09150A1F0FF0FBB1F661F771F9A
:1018A000881FC2F70EC0BA0F621F731F841F48F44F
:1018B000879577956795B795F7959E3F08F0B0CFD8
:1018C0009395880F08F09927EE0F979587950895BF
:1018D0000E944B0D08F481E008950E94810C0C9445
:1018E000860D0E947F0D58F00E94780D40F029F47B
:1018F0005F3F29F00C946F0D51110C94BA0D0C94AC
:10190000750D0E94970D68F39923B1F3552391F358
:10191000951B550BBB27AA2762177307840738F05E
:101920009F5F5F4F220F331F441FAA1FA9F335D0BB
:101930000E2E3AF0E0E832D091505040E695001C6F
:10194000CAF72BD0FE2F29D0660F771F881FBB1F29
:10195000261737074807AB07B0E809F0BB0B802D07
:10196000BF01FF2793585F4F3AF09E3F510578F033
:101970000C946F0D0C94BA0D5F3FE4F3983ED4F3D2
:10198000869577956795B795F7959F5FC9F7880F07
:10199000911D9695879597F90895E1E0660F771F59
:1019A000881FBB1F621773078407BA0720F0621BEA
:1019B000730B840BBA0BEE1F88F7E09508950E9415
:1019C0009F0D88F09F5798F0B92F9927B751B0F025
:1019D000E1F0660F771F881F991F1AF0BA95C9F7B3
:1019E00014C0B13091F00E94B90DB1E008950C948B
:1019F000B90D672F782F8827B85F39F0B93FCCF33E
:101A0000869577956795B395D9F73EF4909580952F
:101A1000709561957F4F8F4F9F4F0895E89409C04F
:101A200097FB3EF490958095709561957F4F8F4F11
:101A30009F4F9923A9F0F92F96E9BB279395F69527
:101A4000879577956795B795F111F8CFFAF4BB0FA5
:101A500011F460FF1BC06F5F7F4F8F4F9F4F16C009
:101A6000882311F096E911C0772321F09EE8872F93
:101A7000762F05C0662371F096E8862F70E060E04F
:101A80002AF09A95660F771F881FDAF7880F9695C8
:101A9000879597F90895990F0008550FAA0BE0E86C
:101AA000FEEF16161706E807F907C0F01216130620
:101AB000E407F50798F0621B730B840B950B39F460
:101AC0000A2661F0232B242B252B21F408950A26C6
:101AD00009F4A140A6958FEF811D811D089597F906
:101AE0009F6780E870E060E008959FEF80EC0895C4
:101AF00000240A94161617061806090608950024ED
:101B00000A9412161306140605060895092E039466
:101B1000000C11F4882352F0BB0F40F4BF2B11F4DA
:101B200060FF04C06F5F7F4F8F4F9F4F089557FD39
:101B30009058440F551F59F05F3F71F04795880F3B
:101B400097FB991F61F09F3F79F0879508951216D2
:101B500013061406551FF2CF4695F1DF08C016167E
:101B600017061806991FF1CF86957105610508942F
:101B70000895E894BB2766277727CB0197F9089546
:101B80000E944B0D08F48FEF08950E94D80D0C941D
:101B9000860D0E94780D38F00E947F0D20F095236D
:101BA00011F00C946F0D0C94750D11240C94BA0D5A
:101BB0000E94970D70F3959FC1F3950F50E0551F4C
:101BC000629FF001729FBB27F00DB11D639FAA2792
:101BD000F00DB11DAA1F649F6627B00DA11D661FE1
:101BE000829F2227B00DA11D621F739FB00DA11D02
:101BF000621F839FA00D611D221F749F3327A00DBC
:101C0000611D231F849F600D211D822F762F6A2F57
:101C100011249F5750409AF0F1F088234AF0EE0FBC
:101C2000FF1FBB1F661F771F881F91505040A9F7E9
:101C30009E3F510580F00C946F0D0C94BA0D5F3FE0
:101C4000E4F3983ED4F3869577956795B795F79525
:101C5000E7959F5FC1F7FE2B880F911D969587959D
:101C600097F908950E944B0D880B990B0895AA1BB4
:101C7000BB1B51E107C0AA1FBB1FA617B70710F077
:101C8000A61BB70B881F991F5A95A9F780959095A9
:101C9000BC01CD01089597FB072E16F4009407D0E0
:101CA00077FD09D00E94370E07FC05D03EF49095D1
:101CB00081959F4F0895709561957F4F0895A1E29A
:101CC0001A2EAA1BBB1BFD010DC0AA1FBB1FEE1FB6
:101CD000FF1FA217B307E407F50720F0A21BB30B01
:101CE000E40BF50B661F771F881F991F1A9469F77D
:101CF00060957095809590959B01AC01BD01CF01D9
:101D00000895052E97FB1EF400940E94980E57FD2F
:101D100007D00E945F0E07FC03D04EF40C94980E7F
:101D200050954095309521953F4F4F4F5F4F089507
:101D300090958095709561957F4F8F4F9F4F089537
:101D4000EE0FFF1F0590F491E02D09940F931F9360
:101D5000CF93DF938230910510F482E090E0E09120
:101D6000D602F091D70230E020E0B0E0A0E030975A
:101D700099F42115310509F44AC0281B390B243088
:101D80003105D8F58A819B816115710589F1FB01C7
:101D900093838283FE0111C04081518102811381AE
:101DA00048175907E0F04817590799F4109761F060
:101DB00012960C93129713961C933296CF01DF91D3
:101DC000CF911F910F9108950093D6021093D702DF
:101DD000F4CF2115310551F04217530738F0A9010E
:101DE000DB019A01BD01DF01F801C1CFEF01F9CF9D
:101DF0009093D7028093D602CDCFFE01E20FF31F5E
:101E0000819391932250310939832883D7CF209130
:101E1000D4023091D502232B41F42091120130914C
:101E200013013093D5022093D402209110013091F8
:101E300011012115310541F42DB73EB74091140130
:101E400050911501241B350BE091D402F091D5027D
:101E5000E217F307A0F42E1B3F0B2817390778F081
:101E6000AC014E5F5F4F2417350748F04E0F5F1FE0
:101E70005093D5024093D402819391939FCFF0E089
:101E8000E0E09CCFCF93DF930097E9F0FC0132971D
:101E900013821282A091D602B091D702ED0130E0F8
:101EA00020E01097A1F420813181820F931F2091AF
:101EB000D4023091D5022817390709F061C0F09398
:101EC000D502E093D402DF91CF910895EA01CE17B5
:101ED000DF07E8F54A815B819E0141155105B1F7A5
:101EE000E901FB83EA8349915991C40FD51FEC178F
:101EF000FD0761F4808191810296840F951FE901AD
:101F000099838883828193819B838A83F0E0E0E0D8
:101F100012968D919C9113970097B9F52D913C9154
:101F20001197CD010296820F931F2091D402309118
:101F3000D5022817390739F6309751F51092D70294
:101F40001092D602B093D502A093D402BCCFD38313
:101F5000C28340815181840F951FC817D90761F44E
:101F60004E5F5F4F88819981480F591F518340838D
:101F70008A819B81938382832115310509F0B0CF3B
:101F8000F093D702E093D6029ECFFD01DC01C0CFD3
:0A1F900013821282D7CFF894FFCF1E
:101F9A00040E0E0E1F000400000A1F1F0E0400008C
:101FAA000000D802800000000000050265019201CD
:101FBA005202C301A101B50100000000C30365017B
:101FCA00730272020D0A006E616E00696E66006F1E
:101FDA007666002048494748202000204C4F572069
:101FEA0020200048454152542041545441434B005B
:101FFA004E6F726D616C0020204865616C746820B8
:10200A004D6F6E69746F72002020496E6974696140
:10201A006C697A696E672E2E0042504D3A005465FB
:10202A006D703A0050756C736553656E736F7220EC
:10203A0073746172746564204F4B2E0042504D3A9E
:10204A002000E299A52041204865617274426561C9
:10205A00742048617070656E65642100484541527C
:10206A00542041545441434B2120002D2D2D202032
:10207A0020004320200054656D703A200020430060
:0A208A005374617475733A2000006E
:00000001FF
